:10000000F8FF002011040000A3150000A315000054
:10001000A3150000A3150000A3150000A315000000
:10002000A3150000A3150000A3150000A3150000F0
:10003000A3150000A3150000A3150000A3150000E0
:100040004D3F0000A3150000A3150000A3150000FC
:10005000A3150000A3150000A3150000A3150000C0
:10006000A3150000A3150000A3150000A3150000B0
:10007000A3150000A3150000A3150000A3150000A0
:10008000A3150000A3150000A3150000A315000090
:10009000A3150000A3150000A3150000A315000080
:1000A000A3150000A3150000A3150000A315000070
:1000B000A3150000A3150000A3150000A315000060
:1000C000A3150000A3150000A3150000A315000050
:1000D000A3150000A3150000A3150000A315000040
:1000E000A3150000A3150000A3150000A315000030
:1000F000A3150000A3150000A3150000A315000020
:10010000A3150000A3150000A3150000A31500000F
:10011000A3150000A3150000A3150000A3150000FF
:10012000A3150000A3150000A3150000A3150000EF
:10013000A3150000A3150000A3150000A3150000DF
:10014000A3150000A3150000A3150000A3150000CF
:10015000C13C0000A3150000A3150000A31500007A
:10016000A3150000A3150000A3150000A3150000AF
:10017000A3150000A3150000A3150000A31500009F
:10018000A3150000A3150000A3150000A31500008F
:10019000A3150000A3150000A31500004F3E0000AA
:1001A0004D3E0000A3150000713E0000A3150000A5
:1001B000A3150000A3150000A3150000A31500005F
:1001C000A3150000A3150000A3150000A31500004F
:1001D000A3150000A3150000A3150000A31500003F
:1001E000A3150000A3150000A3150000A31500002F
:10040000FFFFFFFFFFFFFFFFFFFFFFFFFEFFFFFFFD
:1004100062B64FF000004FF000014FF000024FF0C5
:1004200000034FF000044FF000054FF000064FF0BE
:1004300000074FF000084FF000094FF0000A4FF09E
:10044000000B4FF0000C02F035F9FEE738B54623FB
:1004500001220421012000F0F9FF040046230122BB
:100460000521012000F0F2FF0500DFF87804008884
:10047000001BDFF874140880DFF870040088401B4C
:10048000DFF86C140880DFF86C04DFF85C14B1F955
:100490000010016031BD38B5FFF7D8FFDFF8580410
:1004A000B0F90000DFF84814B1F90010401A01F06B
:1004B0005FF8DFF84814096801F074F80500DFF808
:1004C0002804B0F9000001F053F8DFF8341409688B
:1004D00001F068F8290001F0D1F804002000DFF8ED
:1004E000241401F00DF902D8DFF81C0404002000E8
:1004F000DFF8181401F016F902D2DFF81004040036
:10050000DFF8AC0B046031BDF0B5DFF80404B0F9DE
:100510000000DFF80014B1F900100818022190FB68
:10052000F1F0DFF8F41308800020DFF8E81308800A
:10053000DFF8DC130880DFF8E003B0F9000001F019
:1005400017F80100DFF8D403006801F0FDF804009B
:10055000DFF8CC030068210001F024F80500DFF883
:10056000C4030068210001F01DF80600DFF8B8039D
:10057000B0F9000000F0FCFF310001F07FF801F05D
:1005800057F9E94908802000DFF8281B096801F0C5
:10059000DBF8E649096801F005F8070000200700CC
:1005A000E148B0F90000642802DBDF4864210180E3
:1005B000DD48B0F900007FF06201884203DADA48D2
:1005C0007FF063010180DFF8F00ADFF8F01A0968B4
:1005D0000160D548B0F9000000F0CAFF290001F021
:1005E0004DF8390001F04AF8DFF8D01A0860CB481E
:1005F0000068DFF8C81A096801F094F804D2DFF83F
:10060000BC0AC64909680160DFF8A80A0460F0BDA9
:1006100010B5DFF8A80A0068DFF89C1A096801F035
:1006200093F80400DFF8980A0088401C00F0A0FF4F
:10063000210000F0B7FFDFF88C1A01F01BF9DFF89A
:10064000781A096801F01AF8DFF87C1A086010BD02
:1006500000B5DFF8780ADFF8781A09680180DFF85A
:10066000740ADFF8741A09680180DFF86C0A002147
:100670000160DFF85C0A00210160DFF8600A0068B1
:10068000002101F04FF807D2DFF8480AB0F9000066
:100690004042DFF8401A0880DFF8440A0068002171
:1006A00001F040F807D2DFF8240AB0F90000404218
:1006B000DFF8181A088096480088DFF8181A0988A9
:1006C00008189349088093480088DFF8001A0988C1
:1006D00008189049088000BD2DE9F04300255FF01F
:1006E0000009DFF8000A408AD0F1730000F040FFF3
:1006F0000600DFF8F409DFF8F4190968016030003A
:10070000290001F021F8DFF8E819096800F04AFF34
:100710000700DFF8E0090068310000F043FF804681
:100720004846310000F0AAFF8146DFF8CC09006896
:10073000494600F037FF814635004046390000F059
:100740009DFF0400DFF8A4090460BDE8F08310B544
:10075000DFF898090068DFF89019096800F0F4FFE5
:100760000400DFF898090078401C00F001FF210028
:1007700000F018FFDFF8881901F07CF8DFF868193D
:10078000096800F07BFFDFF87C19086010BD38B500
:1007900004000D002000002100F0C4FF0FD2200053
:1007A00090F0004001F044F802000421002001F024
:1007B00071FA00220521002001F06CFA0CE0200003
:1007C00001F036F802000521002001F063FA002252
:1007D0000421002001F05EFA2800002100F0A2FFB1
:1007E0000FD2280090F0004001F022F8020007210B
:1007F000002001F04FFA00220621002001F04AFA01
:100800000CE0280001F014F802000621002001F09D
:1008100041FA00220721002001F03CFA31BD38B531
:10082000DFF8B80800680400DFF8B40800680500C5
:100830002000002100F064FFFFD32800002100F019
:100840005FFFFFD32000DFF8C01800F059FF02D887
:10085000DFF8B80804002000DFF8B41800F062FFE9
:1008600002D2DFF8AC0804002800DFF89C1800F082
:1008700047FF02D8DFF8940805002800DFF8901839
:1008800000F050FF02D2DFF88808050029002000A0
:10089000FFF77DFF31BD38B5DFF814080068DFF8D9
:1008A0002818096800F050FFDFF85818096800F0B0
:1008B000E5FE0400DFF8F8070068DFF80C180968A7
:1008C00000F042FFDFF83C18096800F03DFF05002A
:1008D000DFF808080460DFF808080560FFF79FFFED
:1008E00031BD0000C8E4FF1FD0E4FF1FCAE4FF1FB2
:1008F000CEE4FF1F3405FF1FCCE4FF1FD404FF1F0D
:10090000D804FF1F0100484600004846000048C6C2
:10091000DAE4FF1FDCE4FF1FD2E4FF1FE004FF1F47
:10092000F804FF1FFC04FF1FD4E4FF1F0005FF1F96
:1009300070B5002400250026272004001E2CC0F0DE
:10094000788282200500062D19D3DFF8C8070078C9
:1009500020184FF48271DFF8C02701FB0020285CCB
:100960008C2807D2DFF8B4070560DFF8B40701214F
:10097000017004E0DFF8A40705606D1EE3E7822044
:100980000500B5F5817F19D8DFF8880700782018B1
:100990004FF48271DFF8802701FB0020285C8C284F
:1009A00007D2DFF880070560DFF87C0701210170BE
:1009B00004E0DFF8700705606D1CE2E7DFF8600710
:1009C000007801283FD1DFF86007007801283AD18C
:1009D000DFF84C0700210170DFF84C07002101709F
:1009E000DFF838070068DFF83C17096808180221AB
:1009F00090FBF1F06142DFF8EC2612EB4101A1F827
:100A00004E006042DFF8DC1611EB4000B0F84E00FB
:100A1000822806D0DFF814070078401CDFF80C1796
:100A20000870D4F12700092840F0FB81DFF80007A7
:100A3000DFF8E81609680180DFF8F806DFF8E41649
:100A400009680180EDE1DFF8D8060078012840F060
:100A50009380DFF8D4060078002840F08D80DFF81E
:100A6000BC060068332813DBDFF8B00600683C28BA
:100A70000EDADFF8A806006800F21810022190FBD9
:100A8000F1F06142DFF85C2612EB4101A1F84E0063
:100A9000DFF8880600683D2813DBDFF88006006871
:100AA00046280EDADFF87406006800F213100221FF
:100AB00090FBF1F06142DFF82C2612EB4101A1F826
:100AC0004E00DFF858060068472813DBDFF84C06B5
:100AD000006850280EDADFF84406006810F58770C9
:100AE000022190FBF1F06142DFF8F82512EB4101A1
:100AF000A1F84E00DFF824060068512813DBDFF868
:100B00001C0600685A280EDADFF81006006800F2AA
:100B10000910022190FBF1F06142DFF8C82512EBC9
:100B20004101A1F84E00DFF8F40500685B2814DBF2
:100B3000DFF8E805006864280FDADFF8E0050068F0
:100B400010F58770022190FBF1F06142DFF89425E7
:100B500012EB4101A1F84E000EE0DFF8C00500687D
:100B600000F20910022190FBF1F06142DFF87425D8
:100B700012EB4101A1F84E00DFF8A405007800282F
:100B800040F0BD80DFF8A0050078012840F0B78074
:100B9000DFF890050068832812DBDFF8880500681D
:100BA0008C280DDADFF87C0500682830022190FBE4
:100BB000F1F06142DFF82C2512EB4101A1F84E0063
:100BC000DFF8600500688D2812DBDFF85805006843
:100BD00096280DDADFF84C0500682630022190FBDC
:100BE000F1F06142DFF8FC2412EB4101A1F84E0064
:100BF000DFF830050068972812DBDFF82805006869
:100C0000A0280DDADFF81C0500681C30022190FBDB
:100C1000F1F06142DFF8CC2412EB4101A1F84E0063
:100C2000DFF800050068AB2812DBDFF8F804006885
:100C3000B4280DDADFF8EC0400681B30022190FBC9
:100C4000F1F06142DFF89C2412EB4101A1F84E0063
:100C5000DFF8D0040068B52812DBDFF8C8040068AC
:100C6000BE280DDADFF8BC0400680F30022190FBCB
:100C7000F1F06142DFF86C2412EB4101A1F84E0063
:100C8000DFF8A0040068C92812DBDFF898040068C8
:100C9000D2280DDADFF88C0400680A38022190FBB4
:100CA000F1F06142DFF83C2412EB4101A1F84E0063
:100CB000DFF870040068D32813DBDFF868040068ED
:100CC000DC280EDADFF85C0400681E38022190FB95
:100CD000F1F06142DFF80C2412EB4101A1F84E0063
:100CE0000DE0DFF8400400682838022190FBF1F0A5
:100CF0006142DFF8F02312EB4101A1F84E00DFF86A
:100D000020040078DFF8201409780843C0B20028D6
:100D100040F0878082200600022E14D343F6F04074
:100D2000DFF8F4137118405C8C2807D2DFF8080450
:100D30000680DFF808040121017004E0DFF8F80301
:100D40000680761EE8E782200600FF2E14D243F6C6
:100D5000F040DFF8C4137118405C8C2807D2DFF82C
:100D6000E0030680DFF8DC030121017004E0DFF816
:100D7000D0030680761CE8E7DFF8C003007801287E
:100D800012D1DFF8C003007801280DD1DFF8A803E5
:100D90000088822808D1DFF8A8030088822803D1C0
:100DA000DFF8400382214182DFF8900300780128B8
:100DB0001CD1DFF890030078012817D1DFF8780301
:100DC0000088822812D0DFF87803008882280DD0AE
:100DD000DFF864030088DFF86813098811FA80F0EF
:100DE000022190FBF1F0BF49488202E0BD48732127
:100DF0004182DFF84C0300210180DFF83C03002131
:100E00000180DFF8380300210170DFF8380300218A
:100E1000017000200600C24800210170C248002174
:100E20000170BF4800210170BF4800210170641E9D
:100E300084E5B048C44909680160AA48408A82280C
:100E400040F09B80822004006F2C16D341F678601E
:100E5000B04909784FF48272AF4B02FB013161183F
:100E6000405C8D2805D3B9480480B9480121017040
:100E700003E0B6480480641EE6E782200400962C56
:100E800016D241F67860A34909784FF48272A24BDA
:100E900002FB01316118405C8D2805D3AD48048008
:100EA000AD480121017003E0AA480480641CE6E714
:100EB000A748007801280DD1A7480078002809D15B
:100EC000A2480088D0F18200142856DA85482821EB
:100ED000418252E09E48007800280CD19E4800785C
:100EE000012808D19B4800888238142845DA7D48BB
:100EF000DC21418241E0964800789749097808430F
:100F0000C0B2002839D182200400742C10D343F6DB
:100F1000F04081496118405C8D2805D38B480480DE
:100F20008B480121017003E088480480641EECE7CF
:100F300082200400912C10D243F6F04076496118CB
:100F4000405C8D2805D383480480834801210170CB
:100F500003E080480480641CECE77D4800787E490B
:100F600009780843C0B2002807D15E487B49098848
:100F7000418260487A49096801606C4800780A2813
:100F80003DD15848408A7C3800F0F2FA00F0B2FFB8
:100F9000744900F0C7FB32D250200500AA2D2ED292
:100FA00096200400A02C28D24FF482705A4900FBEE
:100FB0000410285C8C280FD26B48012101706B480B
:100FC0000078012817D16A480078401C68490870E9
:100FD0006648002101700EE06448012101706248FA
:100FE0000078012807D1604800210170604800782E
:100FF000401C5F490870641CD4E7ED1CCEE75C48D8
:10100000007802282BD35B480088B0F5FA5F26D120
:1010100059480078012822D1584800210160322027
:1010200000F06CFF002344F620620421002000F051
:101030009FFC002344F620620521002000F098FC6C
:10104000002344F620620621002000F091FC0023DA
:1010500044F620620721002000F08AFC72B6424864
:1010600000210170414800210170454800210160C4
:101070003F48002101702D480021017041480021A6
:10108000017032480021018032480021018032483D
:10109000002101703C48002101703C480021017092
:1010A0002B48002101703A480021017070BD0000FA
:1010B000DC04FF1F3805FF1FE404FF1FE804FF1FC7
:1010C000DEE4FF1F0000C842F404FF1FD8E4FF1F46
:1010D00004900340D6E4FF1F04800B40EC04FF1F84
:1010E000F004FF1F1C05FF1F0C05FF1F0805FF1F55
:1010F0002804FF1F2404FF1F1005FF1FF9E4FF1F32
:10110000000088410405FF1F01009644000096443A
:10111000000096C408E5FF1F4005FF1F1405FF1FD0
:10112000FBE4FF1F1805FF1FFAE4FF1F03E5FF1F85
:10113000E2E4FF1FE4E4FF1FEAE4FF1F05E5FF1FF1
:10114000ECE4FF1F06E5FF1FB4E4FF1FE6E4FF1F0A
:10115000FEE4FF1FE8E4FF1FFFE4FF1FEEE4FF1FB4
:10116000B8E4FF1F0000A040FCE4FF1FFDE4FF1FE8
:1011700009E5FF1FF2E4FF1F07E5FF1FE004FF1F63
:101180003005FF1F04E5FF1F01E5FF1F02E5FF1FFC
:1011900000E5FF1F38B504000D00E4B2002C05D1B6
:1011A000EDB2082D02D3EDB2132D0DD3E4B2012C14
:1011B00005D1EDB2042D02D3EDB2122D04D32221BC
:1011C000DFF8440300F0ACFEE4B2002C03D0012CA5
:1011D00000F08380FAE0DFF83403006850F000602C
:1011E000DFF828130860DFF82803006830F090006B
:1011F000DFF81C130860DFF8180300210160EDB26E
:101200002800083801280CD9801E01281BD9801E0F
:1012100001282BD9801E01283AD9C01E012849D99E
:1012200059E0DFF8F002006850F48060DFF8E41263
:101230000860EDB2A80000F1804010F59420002174
:1012400040F8201C48E0DFF8CC0200684FF4007141
:101250000843DFF8C0120860EDB2A80000F180403A
:1012600010F59220002140F80C1C35E0DFF8A402B4
:10127000006850F48060DFF89C120860EDB2A800AE
:1012800000F1804010F59420002140F8281C23E054
:10129000DFF88002006850F40060DFF87812086020
:1012A000EDB2A80000F1804010F59620002140F832
:1012B000381C11E0DFF85C02006850F40050DFF8E1
:1012C00054120860EDB2A80000F1804010F59A2099
:1012D0000021C16100E079E078E0DFF83C020068BD
:1012E00050F00060DFF830120860DFF82402006878
:1012F00030F41040DFF818120860DFF81402002103
:101300000160EDB22800001F03280BD9001F01283F
:101310001AD9801E032829D9001F012838D9C01ED8
:1013200046D052E0DFF8EC01006850F40050DFF8DE
:10133000E4110860EDB2A80000F1804010F59A2099
:10134000002140F8101C40E0DFF8C801006850F4AC
:101350008060DFF8C0110860EDB2A80000F18040A5
:1013600010F59420002140F8201C2EE0DFF8A401A5
:10137000006850F48060DFF89C110860EDB2A800AE
:1013800000F1804010F59420002140F8181C1CE06A
:101390006048006850F480605E490860EDB2A800C3
:1013A00000F1804010F59420002140F8181C0CE05A
:1013B000584800684FF40071084356490860EDB280
:1013C0005648002140F82510FFE7FFE731BDF8B58A
:1013D00004000D0016000027E4B2002C05D1EDB288
:1013E000082D02D3EDB2132D0CD3E4B2012C05D19C
:1013F000EDB2042D02D3EDB2122D03D38721424862
:1014000000F08EFD3200D2B22900C9B22000C0B275
:1014100000F056F8E4B2424850F824000068000694
:10142000F8D5E4B23E4850F8240000690700E4B261
:101430003B4850F82400006830F08000E4B238499E
:1014400051F824100860380080B2F2BD2DE9F8434D
:1014500004000D0016001F005FF00008E4B2002C2D
:1014600005D1EDB2082D02D3EDB2132D0CD3E4B2A9
:10147000012C05D1EDB2042D02D3EDB2122D03D310
:10148000BE21214800F04CFD002081465FFA89F919
:10149000FFB2B9450DD23200D2B22900C9B2200044
:1014A000C0B2FFF794FF18FA80F0804619F10109E5
:1014B000ECE7FFB2B8FBF7F8404680B2BDE8F28334
:1014C00070B504000D00160015F01F0050F040002C
:1014D00014490872B00010F00C0050F0500011498F
:1014E00008701048042141700E4841F234214180B7
:1014F0000C4845F2786181800A49E4B2084850F806
:10150000240000F011F870BD884500003C800440C4
:10151000188004403880044030800440009004402B
:101520001C04FF1FC404FF1F0A7882604A78C2604F
:101530004A8882618A88C2618A790262CA79426273
:10154000CA6802650A7A02604A7A4260704750F8B7
:10155000041B61B150F8042BD30744BFA9F1010368
:101560009A18002342F8043B091FFAD1EFE77047AD
:10157000002840F10980F446404200F005F850F0A0
:1015800000406047002800BF0AD0B0FA80F18840D0
:10159000D1F19D01C905020672F1004241EB102014
:1015A00070477047FF2212EAD05C1DBF12EAD15388
:1015B000944593422BE09C44D30780EA01021A40F1
:1015C00043EA002043EA0121A1FB0030410038BF7B
:1015D00040007CF17F010BDBFE294ADA5B0842EA1E
:1015E000C15153EA006373F1004C51EB1020704776
:1015F000D1F1080CDCF120012FDB5B0810FA01F1BE
:101600000B4373F1004120FA0CF0504170479445B0
:101610001CBF02EAD153934280EA010202F0004269
:101620001DD0400019D0490017D05BB9634514D0D4
:101630000902B1FA81F39940BCEB030CC00140F000
:101640000040C1E70002B0FA80FC10FA0CF0B3EBE6
:101650000C0CC90141F00041B6E710007047400092
:101660000AD0490008D010F1807F94BF11F1807F2B
:1016700002E042F0FF407047D043704790EA010F0C
:1016800044BF81F0004100F067B800BF421A3CBF80
:10169000801A89184FF0004CC0F3C752FF2A24D09B
:1016A000C1F3C75313B3D21AD2F1190327DD4CEAA1
:1016B00001214CFA03F321EA0303D140C20D4CEAA5
:1016C0000020401834BF20EA0C004CEA5000D2053C
:1016D00053EA006373EB0C0C52EB1020420012F142
:1016E000807F38BF7047C00DC0057047490212BFE8
:1016F0009A4200EB5120F8E7D2F11703D9D5704791
:101700004FF0807C1CEB400F94BF1CEB410F05E0B9
:1017100040EA010C5FEA4C0C01D28142704718BFCD
:10172000884270474FF0807C1CEB400F94BF1CEB4D
:10173000410F05E040EA010C5FEA4C0C01D28842FF
:10174000704718BF8142704790EA010F44BF81F093
:101750000041FFF79BBF00BF431A4FF000423EBF5E
:101760005340C01AC91800BFD3095FEAD05C13EB1D
:10177000400F34BFB3EB410F40E07CEBD1530CD3AF
:1017800042EA012122D8D1EB402009D3400A28BFE8
:101790005FEA500140EBCC507047401A15D0400230
:1017A000B0FA80F2521C9040400A4FEA3C23B3EB5F
:1017B000026384BF00EB730007E040F400001A16D8
:1017C000DB07C2F10102D04018437047182BFCDC44
:1017D00031FA03F202FA03F3591A38BF42F0010258
:1017E000D2EB40203CBF4000ACF1010C5FEACC5C86
:1017F000C20572F100414CEB5020704713EB400FD3
:101800000FD24B0009D0ACEBD153022B03DB4902C2
:10181000172BDDDD70479143401A4300D5D10020DE
:10182000704713EB410FD0D36FF0000070470000FA
:101830004100090E7F3915D4D1F11F0114D44000A5
:1018400007D2C00140F00040C84048BF6FF00040E0
:101850007047C00140F00040C8404CBF4FF000400E
:10186000404270470020704700424FF0004058BF90
:10187000C043704710B5FF2313EAD0541DBF13EACD
:10188000D1529C429A4239E0A41ADA0780EA010355
:10189000134042EA012142EA0020421A3CBF641E82
:1018A00001EB4202090AB2FBF1FE01FB1E22120209
:1018B000B2FBF1F001FB10226EF30F201202B2FB1B
:1018C000F1FE4EEA00207F3406DDFE2C24DA53EAD6
:1018D000500050EBC45010BDD4F1020401FB1E2295
:1018E00040F08071192C1DDC21FA04F0C4F12004B1
:1018F000A140114371F10042584110BD9C421ABFF2
:1019000003EAD1529A420FE080EA010E0EF0004342
:10191000400004D0490016D143F0FF4010BD4900FB
:1019200008BFD343180010BD9C4205D1D21AF7D08E
:1019300001F00041484010BD4A0212BF084648402D
:1019400000F0004010BD4AB90902B1FA81F291409D
:1019500044B1A418C00140F000409EE7C90141F025
:10196000004152420002B0FA80F4A040141B94E7F8
:101970002DE9F84F04000D0016001F00DFF82C05BC
:1019800000684FF47A7148435FEA5008E4B2002CD3
:101990000DD0E4B2012C02D0E4B2022C02D1EDB29F
:1019A000022D04D33821DFF8080500F0B9FA5FEA08
:1019B0005800B04204D23921DFF8F40400F0B0FA44
:1019C0005FEA1840B0FBF6F08146002082461FFA1D
:1019D00089F959FA0AF0012802DB1AF1010AF6E73F
:1019E0004FF47A70864201D21AF1010A38FA0AF0ED
:1019F000B0FBF6F081461FFA89F919F1010000FBEE
:101A000007F04FF49661B0FBF1F08346E4B2002C8E
:101A100005D0022C00F0BA80C0F08A80E4E0DFF844
:101A20009404006850F08070DFF888140860EDB20C
:101A3000002D0BD0022D25D016D3042D3ED02FD350
:101A4000062D57D048D3072D62D06FE0DFF8680429
:101A5000006850F40060DFF860140860DFF85C0490
:101A60004FF48061016062E0DFF84C04006850F4DC
:101A70000060DFF844140860DFF844044FF480612C
:101A8000016054E0DFF83004006850F40060DFF8D3
:101A900028140860DFF82C044FF48061016046E0F0
:101AA000DFF81404006850F40060DFF80C140860DC
:101AB000DFF814044FF48061016038E0DFF8F803C8
:101AC000006850F48050DFF8F0130860DFF8FC0382
:101AD0004FF4806101602AE0DFF8DC03006850F415
:101AE0008050DFF8D4130860DFF8E4034FF480611E
:101AF00001601CE0DFF8C003006850F48050DFF89C
:101B0000B8130860DFF8CC034FF4806101600EE089
:101B1000DFF8A403006850F48050DFF89C130860DD
:101B2000DFF8B4034FF48061016000E0B0E05BE0F7
:101B3000DFF88003006850F00070DFF87813086069
:101B4000EDB2002D02D0012D0FD01DE0DFF86803AB
:101B500000684FF400710843DFF85C130860DFF899
:101B60007C034FF4407101600FE0DFF84C03006824
:101B70004FF400710843DFF840130860DFF860039A
:101B80004FF44071016000E082E02DE0DFF8540383
:101B9000006850F08070DFF84C130860EDB2002D43
:101BA00002D0012D0FD01DE0DFF80C0300684FF4C8
:101BB00000710843DFF800130860DFF82C034FF4CE
:101BC000407101600FE0DFF8F00200684FF400712F
:101BD0000843DFF8E4120860DFF810034FF44071A7
:101BE000016000E054E0FFE7EDB2E4B2DFF800038B
:101BF00050F8240010EBC500EDB2E4B2DFF8F012AB
:101C000051F8241011EBC501C96831F00401C1601D
:101C1000EDB2E4B2DFF8D80250F8240010EBC500B2
:101C20002821C160E4B2DFF8C80250F824005FFA4E
:101C30008AFA1AF0070151F028010160E4B2DFF8D6
:101C4000B00250F824000021C164E4B2DFF8A00221
:101C500050F824001FFA89F9C0F80890E4B2DFF8C0
:101C6000900250F824000021C164EDB2E4B2DFF824
:101C7000800250F8240010EBC5001FFA8BFBC0F85F
:101C800010B0E4B2DFF8680250F82400002141608F
:101C9000BDE8F18F2DE9F04104000D001600E4B21B
:101CA000002C0ED0E4B2012C02D0E4B2022C02D1FE
:101CB000EDB2022D05D34FF4B171DFF8F40100F05D
:101CC0002FF9B6F5966F05D940F26311DFF8E00100
:101CD00000F026F9E4B2DFF8180250F8240080681A
:101CE000804618F1010000FB06F04FF49661B0FB4E
:101CF000F1F00700EDB2E4B2DFF8F40150F824008F
:101D000010EBC5000761BDE8F08138B504000D0097
:101D1000E4B2012C02D0E4B2022C02D1EDB2022DC9
:101D200004D340F2C321624800F0FAF8E4B2200084
:101D3000012802D0022832D065E05E48006850F0E9
:101D400000705C490860EDB2002D02D0012D12D068
:101D500023E0594800684FF4007108435649086071
:101D6000DFF878014FF4C0610160DFF874014FF4CF
:101D7000C061016012E0504800684FF400710843F0
:101D80004D490860DFF854014FF4C0610160DFF88D
:101D900050014FF4C061016000E086E033E0DFF8FD
:101DA0004401006850F08070DFF838110860EDB22F
:101DB000002D02D0012D12D023E03F4800684FF4DF
:101DC000007108433C490860DFF81C014FF4C06112
:101DD0000160DFF818014FF4C061016012E036487D
:101DE00000684FF40071084333490860DFF8F800D9
:101DF0004FF4C0610160DFF8F4004FF4C06101608E
:101E000000E052E0FFE7E4B2DFF8E40050F824001D
:101E1000406D50F00400E4B2DFF8D41051F8241003
:101E20004865E4B2DFF8C80050F82400D0F880001C
:101E300050F00800E4B2DFF8B81051F82410C1F8EF
:101E40008000E4B2DFF8A80050F824000021C1644B
:101E5000E4B2DFF89C0050F824004FF6FF71816077
:101E6000E4B2DFF88C0050F82400D0F8800050F085
:101E70000100E4B2DFF8781051F82410C1F88000B6
:101E8000E4B2DFF86C0050F82400406D50F001001F
:101E9000E4B2DFF85C1051F824104865E4B2DFF8D2
:101EA000500050F824000021416031BDC4E4FF1F00
:101EB0003C4500003C8004403880044004B00440AD
:101EC00008B004400CB0044010B0044010C00440FE
:101ED00014C0044018C004401CC0044020900440BA
:101EE0002490044030800440289004402C9004400A
:101EF0001004FF1F002848BF40427047002319000C
:101F0000814209D2054B1B681A00002A02D000BF8B
:101F1000521EFAE7491CF3E770470000C4E4FF1FB4
:101F200038B504000D0000F00BF82A00210003482A
:101F300000F0F9FA00F02DF8F7E700BFD4450000F3
:101F400080B5012301220C21032000F001FB0123B5
:101F500001220D21032000F0FBFA012301220E21B2
:101F6000032000F0F5FA012301220F21032000F0E5
:101F7000EFFA01BD1E4AD2681268012383409A43DA
:101F8000C9B211F0010383401A43194BDB681A6090
:101F9000704710B5012301220C21032000F0D8FA6C
:101FA000012301220D21032000F0D2FA0123012296
:101FB0000E21032000F0CCFA012301220F2103207F
:101FC00000F0C6FA0C200400E4B2102C0ED200215E
:101FD0002000C0B2FFF7CEFF6420FFF78FFF012182
:101FE0002000C0B2FFF7C6FF641CEDE710BD000083
:101FF0002C04FF1F70B504000D0016003068012886
:1020000002D0022805D00AE02000C0B271688847DB
:1020100005E0B0680470B068401CB060FFE7286855
:10202000401C286070BD2DE9F04704005FF0000AF5
:102030005046A1465FF0000A89F800A019F1010995
:10204000002A1FD0D1F800A05546002D05D15FF021
:10205000300A89F800A0401C38E0002D36D095FBEE
:10206000F3FA564603FB165A5746002F02D5FF4394
:10207000313700E03037350089F8007019F1010977
:10208000401CEAE7D1F800A0D446BCF1000F05D10E
:102090005FF0300A89F800A0401C17E0BCF1000F87
:1020A00014D0BCFBF3FAD64603FB1ECAD046B8F1E7
:1020B0000A0F02D218F1300801E018F13708F4468F
:1020C00089F8008019F10109401CE7E7BDE8F087B5
:1020D0002DE9F04104000D0016001F00A046A845A0
:1020E00007DA3A0031003020FFF784FF18F10108C9
:1020F000F5E7BDE8F0812DE9F04104000D00160080
:102100001F00A046A84507DA3A0031002020FFF75B
:1021100071FF18F10108F5E7BDE8F0812DE9F24FF4
:1021200092B00400150000200090129883469BF89E
:1021300000000590002800F0F2810598252813D0B2
:1021400005980A2805D0220000A90598FFF752FF3C
:1021500009E0220000A90D20FFF74CFF220000A992
:102160000A20FFF747FFD7E10020814600200390B7
:102170000398002822D11BF1010B9BF800002028B6
:102180000ED0232812D02B2807D02D2802D030289B
:1021900009D00EE059F00109EAE759F00209E7E732
:1021A00059F00409E4E759F00809E1E759F010098A
:1021B000DEE7BBF1010B01200390D9E70020824646
:1021C000002003900398002813D11BF1010B9BF80A
:1021D000000005903038092806D80A20059900FB30
:1021E0000A10B0F1300AEDE7BBF1010B01200390BA
:1021F000E8E71BF1010B9BF800002E2811D100200D
:102200000390039800280ED11BF1010B9BF80000EE
:102210003038092800D8F4E7BBF1010B0120039006
:10222000EFE7BBF1010B1BF1010B9BF800004C2801
:1022300006D0682802D06C2801D002E003E002E05A
:1022400001E0BBF1010B1BF1010B9BF800000590B5
:10225000582875D0622800F0D580632800F01D81D1
:10226000642813D0692811D06E2800F049816F28A6
:1022700000F0BD80702800F0D080732800F0168137
:10228000752800F0D58078285AD040E1286806905B
:102290002D1D0A23012206A909A8FFF7C4FE070085
:1022A00009A8381806000698002803D52D200290AA
:1022B0007F1C0FE04846800703D52B2002907F1C2F
:1022C00008E04846400703D5202002907F1C01E02B
:1022D00000200290002004904846000711D5029883
:1022E000002804D0220000A90298FFF783FE0120F5
:1022F0000490230000AA51463800FFF7E9FE574634
:1023000012E04846C0070FD4230000AA5146380007
:10231000FFF7F1FE0298002804D0220000A90298DD
:10232000FFF768FE012004900498002807D1029866
:10233000002804D0220000A90298FFF75BFE98E075
:10234000286801902D1D1023002201A909A8FFF77C
:102350006AFE070009A838180600002004904846C5
:10236000000716D54846C0060BD5220000A930202C
:10237000FFF740FE220000A97820FFF73BFE012076
:102380000490230000AA51463800FFF7A1FE5746EB
:102390001BE04846C00718D44846C00600D5BF1CFD
:1023A000230000AA51463800FFF7A5FE4846C006A4
:1023B0000BD5220000A93020FFF71CFE220000A947
:1023C0007820FFF717FE012004904846C0060DD57F
:1023D000049800280AD1220000A93020FFF70AFE45
:1023E000220000A97820FFF705FEBF1C41E0286805
:1023F00001902D1D0823002201A909A8FFF713FE53
:1024000007001FE0286801902D1D0223002201A96A
:1024100009A8FFF708FE070014E0286801902D1DA9
:102420001023002201A909A8FFF7FDFD070009E01C
:10243000286801902D1D0A23002201A909A8FFF791
:10244000F2FD070009A8381806004846000707D51E
:10245000230000AA51463800FFF73AFE574608E02D
:102460004846C00705D4230000AA51463800FFF7AC
:1024700042FE3078002806D0220000A93078FFF70D
:10248000B9FD761EF5E74846C00705D5230000AA2A
:1024900051463800FFF72FFE3EE0287807902D1DAB
:1024A000220000A90798FFF7A5FD35E028688046BF
:1024B0002D1DB8F1000F22D0404600F0EBF80700C8
:1024C0004846C00705D4230000AA51463800FFF74C
:1024D00012FE98F80000002808D0220000A998F801
:1024E0000000FFF787FD18F10108F2E74846C00732
:1024F00005D5230000AA51463800FFF7FCFD0BE08C
:10250000286808902D1D08980099016004E02200B9
:1025100000A90598FFF76EFD1BF1010B07E6009877
:1025200013B0BDE8F08F0EB47EB50400012000901A
:102530000648019007A805002A00210000A8FFF71F
:10254000EDFD060030007EBC5DF810FB014C000084
:10255000F8B504000D0016001F00EDB2202D02D2C8
:10256000FFB2022F03D324214748FFF7D9FCEDB275
:10257000E4B2464850F82400F6B24FF4807131437B
:1025800040F82510F00705D5F6B2032E02D0F6B2BA
:10259000132E0DD1E4B23E4850F8240040690121C9
:1025A000A9408843E4B23A4951F8241048612AE02E
:1025B000E4B2374850F8240040690121A94008439B
:1025C000E4B2334951F824104861FFB2012F0DD114
:1025D000E4B22F4850F8240000680121A9400843C4
:1025E000E4B22B4951F8241008600CE0E4B228480A
:1025F00050F8240000680121A9408843E4B224492E
:1026000051F824100860F1BD70B504000D001600EB
:10261000EDB2202D02D2F6B2022E03D34B211A487E
:10262000FFF77EFCF6B2012E0DD1E4B2184850F847
:10263000240000680121A9400843E4B2144951F87C
:10264000241008600CE0E4B2114850F8240000683F
:102650000121A9408843E4B20D4951F824100860D3
:1026600070BD38B504000D00EDB2202D03D37121EB
:102670000548FFF755FCE4B2054850F8240000690E
:10268000E84010F0010032BD9C4400004004FF1FF0
:102690002C04FF1F01000A000023002A01D10020A2
:1026A00007E01000421C0078002801D05B1CF8E70E
:1026B0001800704780B500F08DFA00F0A7FA00F01E
:1026C00005FBDFF8E803FFF72EFFDFF8E4030068FF
:1026D000DFF8E0134979491CB0FBF1F00090DFF816
:1026E000D0030068DFF8CC130979491CB0FBF1F383
:1026F000DFF8BC030068DFF8BC13C978491CB0FBE5
:10270000F1F2DFF8AC030168DFF8AC03FFF70BFF71
:10271000DFF8A8030078400703D5DFF8A403FFF72C
:1027200002FFDFF898030078800703D5DFF89403F1
:10273000FFF7F9FEDFF884030078C00703D5DFF860
:102740008803FFF7F0FEDFF884030078000603D566
:10275000DFF87C03FFF7E7FEDFF870030078400640
:1027600003D5DFF87003FFF7DEFEDFF860030078C3
:10277000800603D5DFF86003FFF7D5FEDFF84C03D2
:102780000078400703D5DFF85403FFF7CCFEDFF8ED
:102790003C030078800703D5DFF84403FFF7C3FE4E
:1027A000DFF828030078C00703D5DFF83803FFF708
:1027B000BAFEDFF83403FFF7B6FEDFF83003DFF8C8
:1027C0003013884204D0DFF82C03FFF7ACFE03E09F
:1027D000DFF82403FFF7A7FE00F003F800F0A4FAE7
:1027E000FEE780B5DFF814030068000910F0070069
:1027F00000280BD0022813D00DD3042819D014D3ED
:1028000006281ED019D307281FD022E0DFF8F002D7
:10281000FFF789FE20E0DFF8EC02FFF784FE1BE003
:10282000DFF8E402FFF77FFE16E0B848FFF77BFE13
:1028300012E0B748FFF777FE0EE0B648FFF773FEE9
:102840000AE0B548FFF76FFE06E0B448FFF76BFEFD
:1028500002E0B348FFF767FEA848006810F00F00D9
:10286000022812D0042814D0052816D0062818D023
:1028700007281AD008281CD009281ED00A2820D0E2
:102880000C2822D00E2824D027E0A648FFF74BFEC4
:1028900026E0A548FFF747FE22E0A448FFF743FEE5
:1028A0001EE0A348FFF73FFE1AE0A248FFF73BFEF9
:1028B00016E0A148FFF737FE12E0A048FFF733FE0D
:1028C0000EE09F48FFF72FFE0AE09E48FFF72BFE21
:1028D00006E09D48FFF727FE02E09C48FFF723FE35
:1028E00086480068000B10F00F00002803D0022873
:1028F00009D004D30BE09648FFF715FE0AE095488F
:10290000FFF711FE06E09448FFF70DFE02E0934842
:10291000FFF709FE00F06AF891480068000E10F019
:102920000F00072806D0092808D00B280AD00F2846
:102930000CD00FE08B48FFF7F6FD0EE08A48FFF75A
:10294000F2FD0AE08948FFF7EEFD06E08748FFF751
:10295000EAFD02E08648FFF7E6FD864800680002CF
:1029600003D58548FFF7DFFD1EE07D480068000FB6
:10297000002806D0072808D009280AD00F280CD034
:102980000FE07E48FFF7CFFD0EE07D48FFF7CBFD5F
:102990000AE07C48FFF7C7FD06E07A48FFF7C3FD71
:1029A00002E07948FFF7BFFD78480068000B10F09F
:1029B0000F00052806D0072808D008280AD00928C3
:1029C0000CD00FE07248FFF7AEFD0EE07148FFF744
:1029D000AAFD0AE07048FFF7A6FD06E06F48FFF782
:1029E000A2FD02E06E48FFF79EFD01BDF8B56D48FF
:1029F000032101706C48002101706C4800210170B6
:102A00006B48002101706B48012101706A488021E8
:102A10000170694800780006FBD56848007804001A
:102A20006748007805006748007806006648007827
:102A30000700FFB20097F6B23300EDB22A00E4B20D
:102A400021006248FFF76FFD564803210170564888
:102A50000021017055480021017055480421017082
:102A60005448012101705448802101705248007877
:102A70000006FBD551480078040051480078050055
:102A8000504800780600504800780700FFB20097D1
:102A9000F6B23300EDB22A00E4B221004C48FFF751
:102AA00042FD4548FF210170F1BD00009C48000037
:102AB000C0E4FF1F5404FF1F6C46000000E0074005
:102AC000304B00003C490000104C000001E0074082
:102AD000404B0000904A000090490000A8490000C7
:102AE000584900001C4C0000BC4800000000FF1FBB
:102AF00000000000284C0000344C000024800440FA
:102B00004C4C0000544C00005C4C0000644C000035
:102B10006C4C0000744C00007C4C0000844C0000A5
:102B20003C480000504B0000604B0000704B000020
:102B3000804B0000904B0000A04B0000B04B000009
:102B4000C04B0000D04B0000E04B0000E447000009
:102B5000A44A0000B84A0000CC4A0000F446000035
:102B60004C800440C0490000D8490000F0490000F2
:102B7000DC48000050800440F04B0000084A000090
:102B8000204A0000384A0000FC4800000070044061
:102B9000E04A0000F44A0000084B00001C4B000013
:102BA0007449000007000240060002400500024090
:102BB000040002400F000240000002400B000240EF
:102BC0000A00024009000240080002406448000078
:102BD0001C49000080B500F009F80A4800884FF64B
:102BE000FE7108400749088001BD000072B6064822
:102BF0004CF22051018004484DF62811018062B644
:102C000070470000002005400E2005402DE9F843E4
:102C10002448254988420DD000208046B8F5826FAF
:102C200008D22048204951F8281040F8281018F1FF
:102C30000108F3E71B4800F0F7FA1C4807001C489E
:102C400006001C480400A01B80464046B0F1010865
:102C5000002804D030783870761C7F1CF5E71648C1
:102C6000814616480500B5EB090080464046B0F1A4
:102C70000108002805D0002089F8000019F1010999
:102C8000F4E70F480F49104A531A98464346B3F1E8
:102C90000108002B04D00B780370491C401CF5E799
:102CA000BDE8F1830000FF1F000000001004FF1FBB
:102CB000384400009C440000C404FF1F0EE5FF1FC1
:102CC0007404FF1FEC4400003C45000080B511482F
:102CD000006850F478500F490860642000F056FBFB
:102CE0000D4908600C4800684FF47A7148430B495D
:102CF00008600A4800680A490968C1F30361491C71
:102D0000B0FBF1F0074908604FF41651012000F0C4
:102D1000BFFC01BD38800440C0E4FF1FBCE4FF1FBE
:102D200044800440C4E4FF1F80B572B6002344F61B
:102D3000206204210020FEF71BFE002344F62062DF
:102D400005210020FEF714FE002344F62062062130
:102D50000020FEF70DFE002344F62062072100202C
:102D6000FEF706FE012301220E210020FFF7F0FBF3
:102D70000123012210210020FFF7EAFB0123012299
:102D80000F210020FFF7E4FB012301221121002085
:102D9000FFF7DEFB0123012200210220FFF7D8FB11
:102DA0000123012201210220FFF7D2FB002302228E
:102DB0000D210220FFF7CCFB002302220C21022070
:102DC000FFF7C6FB002302220B210220FFF7C0FB06
:102DD000002302220A210220FFF7BAFB002302226D
:102DE00009210220FFF7B4FB002302220821022060
:102DF000FFF7AEFB0023022207210220FFF7A8FB0A
:102E00000023022206210220FFF7A2FBDFF888033D
:102E1000DFF888130160DFF88803DFF888130160AA
:102E2000DFF884035FF07F510160DFF88003DFF893
:102E300080130160DFF87C03002101804FF41651FC
:102E4000012000F025FC00F069F8DFF86C03016850
:102E5000002000F023FD0E21442000F061FA04213F
:102E60000120FEF797F905210120FEF793F90621CD
:102E70000120FEF78FF907210120FEF78BF90021D1
:102E80000120FEF742FF00210220FEF73EFFC8238B
:102E9000012204210120FEF7D9FADFF8201308806F
:102EA000C823012205210120FEF7D0FADFF8101314
:102EB0000880DFF810030021018000F043F8DFF8FC
:102EC000080300210170DFF8040300210160C048FD
:102ED0000021018062B6BC4800780128FBD10022A5
:102EE0000E210020FFF790FBBA4800210170B64880
:102EF00000210170FDF71CFD002210210020FFF7CA
:102F000083FBB24800210160B348002101705720C3
:102F100000F08DF95A2000F08AF9DCE780B509222B
:102F20000D21032000F0F2FC09221821002000F0FE
:102F3000EDFC0A215A2000F0F3F90221572000F09D
:102F4000EFF901BD80B509210220FFF78AFB0128B6
:102F500019D1A24841210180A1484FF4A0710180FC
:102F6000A048A1490160A148A1490160A1489F4929
:102F700009680160A048A14901608748874901604C
:102F800087489F4901600D210220FFF76AFB012855
:102F900013D19248412101809148FA210180914842
:102FA0009849016091489849016092488F490968A1
:102FB000016091485FF07F5101600C210220FFF712
:102FC00050FB012813D185484121018084484FF4EA
:102FD0008C71018083488B49016084488A49016073
:102FE00084488249096801608348884901600B214F
:102FF0000220FFF736FB012813D178483C210180DD
:1030000077484FF49671018076488149016077488E
:1030100080490160774875490968016076487B49B5
:1030200001600A210220FFF71CFB012813D16B4825
:103030003C2101806A484FF4A071018069486A49C7
:1030400001606A486A4901606A4868490968016024
:1030500069486A49016008210220FFF702FB012844
:1030600002D16D480121017007210220FFF7F9FA12
:10307000012802D153482821018006210220FFF7B0
:10308000F0FA012802D14F48DC2101800C210220F6
:10309000FFF7E7FA01281AD10D210220FFF7E1FA24
:1030A000012814D14D48372101804D484FF4A571B6
:1030B00001804C484C4901604C484D4901604D48E5
:1030C0004A49096801604C485FF0814101600B2169
:1030D0000220FFF7C6FA01281AD10C210220FFF7BF
:1030E000C0FA012814D13D48322101803C484FF4F8
:1030F000AA7101803B483C4901603C483C49016061
:103100003C483A49096801603B485FF081410160F1
:103110000B210220FFF7A5FA01281AD10A2102206B
:10312000FFF79FFA012814D12C482D2101802C484B
:103130004FF4B47101802B48384901602B4838495D
:1031400001602C482949096801602B485FF08141E2
:1031500001600A210220FFF784FA01281AD109210F
:103160000220FFF77EFA012814D11C482821018093
:103170001B484FF4BE7101801A482A4901601B4860
:10318000274901601B481949096801601A485FF026
:103190008141016001BD0000D404FF1F00003841DF
:1031A000D804FF1F0000A03FF804FF1FFC04FF1F0E
:1031B0003333733FCCE4FF1FC4E4FF1FC8E4FF1F99
:1031C000CAE4FF1FEEE4FF1F0BE5FF1FB0E4FF1F83
:1031D000F2E4FF1F0CE5FF1F0AE5FF1F08E5FF1FD4
:1031E000F6E4FF1F2804FF1FA470FD3F2404FF1F07
:1031F0000AD7C33FB4E4FF1FB8E4FF1F00009040AC
:103200003D0AB73F1F85EB3F3333B33F6666E63F6A
:1032100048E1FA3FCDCCEC3F07E5FF1F1F850B408F
:10322000D7A3D03FEC51184048490860704738B5E3
:1032300004005C2C02DB4648FFF775F9202094FB64
:10324000F0F00500002D03D0022D27D013D337E076
:103250000120202194FBF1F202FB114290403D49F4
:1032600008600120202194FBF1F202FB1142904002
:103270003949086024E00120202194FBF1F202FB8F
:1032800011429040354908600120202194FBF1F261
:1032900002FB114290403249086011E001202021D8
:1032A00094FBF1F202FB114290402E49086001208C
:1032B000202194FBF1F202FB114290402A49086060
:1032C00031BD38B504005C2C02DB2848FFF72BF930
:1032D000202094FBF0F00500002D03D0022D15D026
:1032E0000AD31CE00120202194FBF1F202FB1142E1
:1032F00090401F49086012E00120202194FBF1F268
:1033000002FB114290401B49086008E00120202187
:1033100094FBF1F202FB114290401749086031BD65
:1033200070B504000D005C2C02DB1448FFF7FBF8BD
:10333000102D02DB1248FFF7F6F804F1604010F59B
:10334000644006002801307070BD000008ED00E008
:10335000AC47000080E200E000E100E084E200E031
:1033600004E100E088E200E008E100E0344700000A
:1033700080E100E084E100E088E100E070470000C7
:10338000B4460000DFF800F07504FF1F38B50400F4
:10339000E4B2002C00F00E81E4B2200030281ED0F0
:1033A000322823D0602828D064282DD06E2832D02F
:1033B000782837D07D283CD0822841D08C2846D030
:1033C00096284BD0A02850D0AA2855D0B4285AD03F
:1033D000C8285FD0E12864D0FA2869D06FE0A448FB
:1033E00018210170A248002141706CE0A04818210A
:1033F00001709F480121417065E09D4818210170CE
:103400009B48182141705EE0994818210170984846
:103410001A21417057E096481821017094481F21E5
:10342000417050E092481321017091481821417079
:1034300049E08F48132101708D481A21417042E004
:103440008B48132101708A481C2141703BE0884859
:103450000E21017086481221417034E084480E210B
:1034600001708348152141702DE081480E210170C3
:103470007F481821417026E07D480E2101707C486C
:103480001B2141701FE07A480E21017078481E21EF
:10349000417018E076480C21017075481C2141707C
:1034A00011E073480B21017071481E2141700AE040
:1034B0006F480A2101706E481F21417003E06420AB
:1034C000FFF764FFD2E06A4800218170E4B2652C06
:1034D00003D267480021C1701FE0E4B2C92C03D2B7
:1034E00063480121C17018E02000C0B240F22D11E4
:1034F00080B2884203D25E480221C1700DE02000F4
:10350000C0B240F2911180B2884203D258480321E0
:10351000C17002E056480F21C17055485449C9781E
:103520000171E4B21A2C03D251480021417141E0EB
:10353000E4B2332C03D24E48012141713AE0E4B2A7
:103540004C2C03D24A480221417133E0E4B2652C8D
:1035500003D24748032141712CE0E4B27E2C03D210
:1035600043480421417125E0E4B2972C03D240483E
:10357000052141711EE0E4B2B02C03D23C48062183
:10358000417117E0E4B2C92C03D2394807214171D7
:1035900010E0E4B2E22C03D235480821417109E081
:1035A000E4B2FB2C03D232480921417102E03048D9
:1035B0000F2141712E484078183080B232214843A3
:1035C0002B490978491C89B290FBF1F00500294884
:1035D000002101702848006850F08050264908609A
:1035E0002648007850F0800024490870244898212B
:1035F000017024480078C006FBD422480078C0F34C
:103600008100C0B20228F8D11948007810F01F00DC
:103610001D4908701D480021017015484379144860
:1036200002791348C17812488078FFF7ABFE104842
:10363000407810F01F0050F0400014490870114805
:1036400000788006FBD50F4800784006FBD50C4873
:10365000007810F03F000A4908700A480078C0F36B
:103660008100C0B20328F8D12800C0B232BD00BF2B
:103670005404FF1F014006403480044008C0074046
:103680000040064006400640044006400540064013
:10369000F0B4C0B2002808D0022824D014D30428E3
:1036A0003FD02FD305284BD059E06B4E4FF44077D5
:1036B00037606A4E4FF440773760694E366856F48B
:1036C0008066674F3E604AE0664E4FF44077376051
:1036D000654E4FF440773760614E366856F40066A9
:1036E0005F4F3E603BE0614E4FF440773760604E85
:1036F0004FF4407737605A4E366856F48056584F2C
:103700003E602CE05B4E4FF4407737605A4E4FF4EA
:1037100040773760524E366856F40056504F3E6040
:103720001DE0564E4FF440773760554E4FF44077CA
:103730003760544E366856F48066524F3E600EE055
:10374000514E4FF440773760504E4FF4407737601A
:103750004C4E366856F400664A4F3E60FFE7C0B2F2
:103760004B4E56F82060F67816F0F306C0B2484F7C
:1037700057F82070FE70C0B2454E56F82060002702
:10378000B770C0B2002801D1012600E00026C0B207
:10379000012801D1012700E000273E43F6B2002EA8
:1037A00006D03C4E36684FF47A777E43350005E00C
:1037B000394E36684FF47A777E4335000E01B5FBFB
:1037C000F6F63200C0B2324E56F82060367816F067
:1037D000E006340092B2160A16F01F062643C0B265
:1037E0002B4F57F820703E70C0B2294E56F820601B
:1037F00072706E010F01B6FBF7F692B2B6EB42168D
:103800003300C0B2224E56F82060B67A16F0E006B9
:103810003400C0B21E4E56F8206013F01F07274335
:10382000B772C0B21A4E56F82060F67856F00C0601
:10383000C0B2174F57F82070FE70F0BC7047C0B28E
:10384000134A52F8202012791206F8D5C0B2104A55
:1038500052F82020D171704718C004401CC00440A9
:10386000348004400CB0044010B004400CC004404C
:1038700008C0044040B0044044B0044064D0044058
:1038800060D004402880044024D0044020D004406C
:103890005C04FF1FBCE4FF1FC4E4FF1F38B5040035
:1038A0000D001748006850F40000154908601548DD
:1038B00000688008800013490860E4B220011249C2
:1038C0004550E4B2104810EB0410C06850F00100FD
:1038D000E4B20D4911EB0411C860E4B20A4810EBE0
:1038E0000410806850F00300E4B2074911EB0411A2
:1038F0008860E4B214F14400FFF799FC31BD000088
:103900003C800440007003400071034070B5040027
:103910000D001600154800684FF40071A1400843DF
:1039200012490860EDB2E4B2114850F82400F6B232
:10393000310411F47021F6B2F209D2B2114351F4FC
:10394000817140F82510E4B20A4850F8240040691B
:103950000121A9408843E4B2064951F82410486186
:10396000E4B214F15700FFF762FC70BD38800440E8
:103970004004FF1F2C04FF1F2DE9F44F82B0060006
:103980000F0098460C9CDDF834900E9DE4B2002C9C
:1039900007D1DFF8F802874203D3DFF8F402B84218
:1039A00022D2E4B2012C0BD1DFF8E002874207D328
:1039B000DFF8E002B84203D317F00300032813D165
:1039C000E4B2022C0BD1DFF8C402874207D3DFF840
:1039D000C802B84203D317F00300002804D04021E6
:1039E000DFF8B802FEF79CFAE4B2002C02D15FF0D7
:1039F000010B0DE0E4B2012C02D15FF0020B07E0F5
:103A0000E4B2022C02D15FF0040B01E05FF0100B76
:103A1000DFF88C02006850F00200DFF884120860C2
:103A2000DFF88002006850F00200DFF878120860CA
:103A3000F6B27001DFF870124750F6B2700100F173
:103A4000804010F5104002990161F6B2700100F15A
:103A5000804010F5104000218180F6B2700100F125
:103A6000804010F510405FFA8BFBA0F814B0E4B270
:103A7000200210F4E060E4B214F007010843F6B24B
:103A8000710101F1804111F51041C880F6B2700159
:103A900000F1804010F5104049464904490CC182AC
:103AA000F6B2700100F1804010F510404946C9059A
:103AB000C90DC183DFF8F401006830F08000DFF841
:103AC000EC110860F6B2700100F1804010F5104072
:103AD0005FFA8BFBC0F808B0F6B2700100F18040CD
:103AE00010F510400021C160A80602D4D9F10000F1
:103AF00000E00020F6B2710101F1804111F51041A2
:103B00008861F6B2700100F1804010F510400A2182
:103B10008183F6B2700100F1804010F51040808B77
:103B20004FF6FD710840F6B2710101F1804111F5C7
:103B3000104188835FFA88F85FEA5810313050F0FE
:103B40008000F6B2DFF868117054DFF86801006891
:103B50004FF400715FFA88F85FEA58129140084309
:103B6000DFF8501108605FFA88F85FEA6810524980
:103B700051F820005FFA88F85FEA68114E4A52F85F
:103B800021104969012218F01F039A4091434161B5
:103B90005FFA88F818F01F005FFA88F85FEA68118A
:103BA000464A52F82110EDB215F00302EDB2AB090E
:103BB000DBB253EA02424FF480731A4341F82020EB
:103BC0005FFA88F8B8F1000F01D0012000E0002072
:103BD0005FFA88F85FEA6811374A52F821105FFAF5
:103BE00088F85FEA6812344B53F8222052690123A7
:103BF00013FA00F032EA000048612E4800684FF4E2
:103C00000071BA0912F0070291400843294908607F
:103C1000E4B2002C03D0022C07D003D308E000202C
:103C2000387109E00020B88006E00020786003E0E9
:103C300085211A48FEF774F93800103810F03F005B
:103C40008DF800009DF800005FFA8BFB5FEACB0166
:103C500051FA80F08DF801009DF8000082469DF831
:103C600001005FFA8AFA82450ED25FFA8AFAB80931
:103C700010F00700114951F820004FF4817140F80D
:103C80002A101AF1010AEAE7BDE8F78F10F00F4099
:103C900013F10F4012F10F4010F10F4020460000C9
:103CA000408004403C800440009000400080004080
:103CB00000100240388004402C04FF1F4004FF1F06
:103CC00038B58C480088401C8A4908808A4800889A
:103CD000401C89490880FCF79BFC88480088401CF0
:103CE00086490880FCF733FD85480088401C8449DC
:103CF000088084480088401C8249088080480088E9
:103D000040F6C411884202D17F48012101707E48EB
:103D10000078012833D17D4801685FF07E50FDF7BF
:103D2000ADFC7A4908607948006800F011F900227A
:103D3000774B00F035F904000D007648008800F05C
:103D400053FA22002B0000F05DFA00F02DFB7249BF
:103D5000086070480088FDF715FC01006E48006897
:103D6000FDF7CEFC0BD86848002101706948008837
:103D7000FDF708FC6849086064480021016060485C
:103D8000008840F62921884203D35D4840F68C2103
:103D900001805C48008841F64171884203D359484C
:103DA0004FF4FA5101805D480068C00747D551487B
:103DB0000088052805D34F4800210180FCF748FC06
:103DC00035E04C480088012831D04A480088022854
:103DD00002D1FCF760FB2AE046480088032811D195
:103DE0004F480088401C4E4908804D4800881428E0
:103DF0001DD3FCF789FB4A48002101803E48002181
:103E0000018014E03B480088042810D14548008810
:103E1000401C4449088043480088012807D3FCF728
:103E20005BFC404800210180344800210180FCF700
:103E300032FD3A48006850F00100384908603A48BD
:103E4000006850F002003849086031BD70473748BB
:103E50000068C0010BD53548006850F080703349C8
:103E60000860334800210160324801210170704729
:103E7000E0B53148006880043AD52F48006850F416
:103E800000502D4908602B480078002830D02120B0
:103E900002904FF482700190002000906C2324481F
:103EA00000684FF48271254A01FB00222449042056
:103EB000FFF762FD2348006850F0100021490860B8
:103EC0001B480068401C1A49086019480068DC2833
:103ED0000ED11748002101601A48006830F0100028
:103EE000184908601848012101705A20FFF7E9F9C4
:103EF00007BD0000F0E4FF1FDEE4FF1FF9E4FF1F31
:103F0000F4E4FF1FF2E4FF1F0DE5FF1F3C05FF1F58
:103F100000408F40F6E4FF1FE004FF1F0C710340D8
:103F2000E0E4FF1FF8E4FF1F08710340A090044085
:103F3000B0E4FF1F0AE5FF1FA0C004404005FF1FBB
:103F400050F00F400C8000400BE5FF1F7047000051
:103F50005FF0FF0C1CEAD05114BF614506E0C110B0
:103F6000400721F0E04101F16051704779B900F05C
:103F7000004100020AD0B0FA80FC00FA0CF001F116
:103F80006051A1EB0C5101EBD0214005704741027B
:103F90000CBF40F4E0016FF000010020704700000A
:103FA000F0B540F2FF7581EA030C0CF0004C15EA05
:103FB00011541DBF15EA1357AC42AF42E5E0BC41B6
:103FC000C1F31301C3F31303801A994143F480131F
:103FD00004D2641E4000494180185941C90241EA97
:103FE0005051B1FBF3F603FB1611A2FB0675D7EB9C
:103FF000C020A94102D2761E80185941C90241EA67
:104000005051B1FBF3FE03FB1E11A2FB0E75D7EB63
:10401000C020A94103D2AEF1010E80185941890296
:1040200041EA9051760546EA8E2EB1FBF3F603FB8A
:104030001611A2FB0675D7EB8020A94102D2761E8D
:1040400080185941C90241EA50514EEA060EB1FBAF
:10405000F3F603FB1611A2FB0675D7EBC020A941AE
:1040600002D2761E80185941C90241EA5051B1FB73
:10407000F3F703FB1711A2FB0735D3EBC020A941CF
:1040800067F100070CBF004247F0010766F3D52730
:104090004FEA1E31B80814F5806412DDBD0775F1D2
:1040A000004250EB0E5051EB045111F5801F5CBFE4
:1040B00041EA0C01F0BD4CF07F6141F0E04100208D
:1040C000F0BDBD076D0840EA0E5041F48011D4F1F7
:1040D0000104B4F120060ADAC4F120060200E0402F
:1040E00001FA06F3E1401843B24015430EE0342CC8
:1040F00013DCC6F1200445EA40056D0820FA06F2FB
:10410000154321FA06F0A1400D43002175F100424C
:1041100050F1000051EB0C01F0BD00205FEA0C01F2
:10412000F0BDCFB992185B41B3FA83F704BFB2FA7E
:1041300082F6BF190B3FB7F120062FBF02FA06F334
:10414000BB40C7F1200622FA06F638BF3343BA4017
:104150001CB1E419641E33E77F4231F00041B1FA2B
:1041600081F404BFB0FA80F6A4190B3CB4F1200628
:104170002FBF00FA06F1A140C4F1200620FA06F68E
:1041800038BF3143A0403C1B1AE7AC421ABF05EAD6
:104190001357AF4212E050EA41061CBF52EA4306F1
:1041A000BFE750EA4107304661461CBF41EA05516E
:1041B000F0BD52EA430C08BFC143F0BD00204FF4EC
:1041C000001616EB410F98BF16EB430F08BF16EB16
:1041D000410F24BFC14305E016EB430F0CBF6146FE
:1041E0004CEA0551F0BD0000010000BF09D0B0FA53
:1041F00080F18840C91CC1F58461090501EBD0211B
:1042000040057047B0B581EA030C0CF0004C40F259
:10421000FF7515EA11541DBF15EA1357AC42AF42A2
:1042200039E0E41923EA455343F48013C90241F00D
:10423000004141EA505EC7021100A7FB02020028BC
:104240004FF00000EEFB01204FF00001E3FB0721DF
:1042500018BF42F00102401800214941E3FB0E0162
:10426000A4F580640F0302D252004041494154F149
:1042700001046CDD470872F1004250F1000051EB7F
:104280000451A1F580115CBF41EA0C01B0BD4CEABC
:1042900005510020B0BD05EA1357AC4214BFAF4230
:1042A00041E050EA410E1CBF52EA430E02E0614673
:1042B0000020B0BD24423C441BD15FEA070EF6D07B
:1042C000090302BF01460020AEF1140EB1FA81F7D6
:1042D000AEEB070401FA07FE0C37C7F1200100FA24
:1042E00007F7C8404EEA000E23EA455343F4801313
:1042F000A2E733F00043B3FA83F704BFB2FA82FEB9
:1043000077440B3FE41BB7F1200E2FBF02FA0EF3E8
:10431000BB40C7F1200E22FA0EFE38BF43EA0E035F
:10432000BA40641C82E750EA410E14BF52EA430EC1
:104330006FF000014FF4001717EB430F8ABF1946C7
:1043400017EB410FB5E74CEA05510020B0BDD4F1A1
:104350000104B4F120070FDAC4F12007520828BF86
:1043600042F0010210FA07F501FA07F7E1BF2A430C
:10437000E0403843E1400FE0352C98DCC7F12004E1
:1043800052EA400220FA07F218BF42F0010231FA65
:1043900007F0A1400A43002172F1004250F10000F1
:1043A00051EB0C01B0BD00004FEAF17CBCF1E04CD8
:1043B0002CBFBCF5001F11E05FEA4C0C34BFBCF110
:1043C0007F5F2EE05FEA9C0C4FEA0C1C4FEA3C0C2E
:1043D000C10071F100414CEB50707047C90241EAD5
:1043E0005051C00218BF41F0010141F000414FEAB5
:1043F0006C50C0F10900212810D240EACC7CCCF1ED
:10440000200C11FA0CF070F10040CCF1200C21FAD4
:104410000CF00CF0004C40EB0C0070474FEACC70F5
:104420007047490011F5001F04D84FEACC10FF3047
:10443000C0057047C81770470080034000900340D4
:1044400000800B4000B0034000B00B406666C63FE2
:10445000713DEA3F00F00F4040F00F4080F00F4008
:10446000C0F00F4000F10F400090044000A0044055
:1044700000B0044000C0044000D004400B1F000006
:104480000009000000A0064000B0064000C0064041
:1044900000D0064000A00E4000B00E40433A5C55EC
:1044A000736572735C7A68616E6774616F74616F53
:1044B0005C4465736B746F705CCAD4B3B5372E32CD
:1044C00036CFC2CEE7D4D9B4CED4D9B4CED0DEB8AC
:1044D000C45C7372635C647269766572735C6770E6
:1044E000696F5C6770696F2E63000000F0B4114E55
:1044F000366834000F4E366856F47F060D4F3E6026
:104500000E0616F0706656EA0076170517F4700767
:104510003E431F0417F470273E43074F3E600026BA
:104520003500EDB29D4201D26D1CFAE7014E3460B8
:10453000F0BC704700F0014044800440433A5C55B1
:10454000736572735C7A68616E6774616F74616FB2
:104550005C4465736B746F705CCAD4B3B5372E322C
:1045600036CFC2CEE7D4D9B4CED4D9B4CED0DEB80B
:10457000C45C7372635C647269766572735C465482
:104580004D5C46544D2E6300433A5C55736572731F
:104590005C7A68616E6774616F74616F5C446573A7
:1045A0006B746F705CCAD4B3B5372E3236CFC2CEBF
:1045B000E7D4D9B4CED4D9B4CED0DEB8C45C73724B
:1045C000635C647269766572735C6164635C616488
:1045D000632E6300B6CFD1D4B7A2C9FAD4DA25735B
:1045E000CEC4BCFEB5C4B5DA2564D0D0A3A10AB64A
:1045F000CFD1D4CCF5BCFEB2BBB3C9C1A2A3ACC76A
:10460000EBBCECB2E2B4EDCEF3D4ADD2F2A1A3098F
:10461000A1AAA1AA20627920D2B0BBF00A0A0000A8
:10462000433A5C55736572735C7A68616E67746156
:104630006F74616F5C4465736B746F705CCAD4B3E4
:10464000B5372E3236CFC2CEE7D4D9B4CED4D9B412
:10465000CED0DEB8C45C7372635C647269766572D6
:10466000735C646D615C646D612E6300C4DABACB07
:10467000C6B5C2CAA3BA25644D487A09D7DCCFDFD4
:10468000C6B5C2CA20A3BA25644D487A0A666C65CD
:1046900078C6B5C2CAA3BA25644D487A2009666CAB
:1046A000617368C6B5C2CAA3BA25644D487A0A0ABE
:1046B000000000000A4552522120496E76616C6963
:1046C00064207072696F726974792076616C7565A7
:1046D0002070617373656420746F207072696F72EB
:1046E000697479206972712066756E6374696F6E82
:1046F000210A00000A546869732076657273696F35
:104700006E206F6620736F66747761726520646FC8
:1047100065736E2774207265636F676E697A6520B2
:10472000746865207265766973696F6E20636F6463
:10473000652E00000A4552522120496E76616C694F
:1047400064204952512076616C75652070617373E5
:10475000656420746F2064697361626C652069729E
:10476000712066756E6374696F6E210A0000000027
:104770000A4552522120496E76616C696420495283
:10478000512076616C756520706173736564207467
:104790006F207072696F7269747920697271206616
:1047A000756E6374696F6E210A0000000A455252EB
:1047B0002120496E76616C696420495251207661EE
:1047C0006C75652070617373656420746F20656E0D
:1047D00061626C65206972712066756E6374696FC1
:1047E0006E210A000A556E7265636F676E697A659D
:1047F00064204B696E65746973207061636B6167D7
:104800006520636F64652E2020202020200000009A
:1048100010B5084979441C31074C7C441A34A14234
:1048200006D0081D0A68511888470146A142F8D1F0
:1048300010BD00BF58000000640000000A556E72F1
:1048400065636F676E697A6564204B696E6574692C
:10485000732066616D696C79206465766963652E85
:104860000A000000466C61736820706172616D65BA
:104870007465722076657273696F6E2025642E25CB
:10488000642E25642E25640A00000000C3CCFFFFBF
:104890004CE00000C404FF1F000000000A0A0909E0
:1048A000D2B0BBF06B696E65746973BACBD0C4B01B
:1048B000E5B2E2CAD4B3CCD0F20A00000AD2B0BB4F
:1048C000F04B696E65746973BFAAB7A2B0E5C6F410
:1048D000B6AFB7BDCABDA3BA000000004552522111
:1048E0002120556E646566696E656420502D666C86
:1048F0006173682073697A650A000000455252218D
:104900002120556E646566696E656420466C657825
:104910004E564D2073697A650A000000466C61733B
:10492000682076657273696F6E2049442025642E75
:1049300025642E25642E25640A000000436F7265ED
:10494000204C6F636B7570204576656E74205265E0
:104950007365740A000000004C6F772D766F6C74DD
:10496000616765204465746563742052657365747E
:104970000A000000455252212120556E6465666987
:104980006E65642052414D2073697A650A0A000001
:104990005761746368646F6728434F5029205265DC
:1049A0007365740A000000004C6F7373206F6620FB
:1049B000436C6F636B2052657365740A00000000DE
:1049C000313238206B4279746573206F6620502D28
:1049D000666C617368090000323536206B42797469
:1049E0006573206F6620502D666C61736809000046
:1049F000353132206B4279746573206F6620502DFB
:104A0000666C61736809000030206B4279746573CD
:104A1000206F6620466C65784E564D0A00000000F7
:104A2000313238206B4279746573206F6620466C92
:104A300065784E564D0A0000323536206B42797447
:104A40006573206F6620466C65784E564D0A0000EF
:104A500000F009F8002801D0FFF7DAFE0020FEF789
:104A600063F900F002F80120704700F001B800007F
:104A70000746384600F002F8FBE7000080B5C04664
:104A8000C046024A11001820ABBEFBE72600020018
:104A900045787465726E616C2050696E2052657342
:104AA00065740A0053696C69636F6E2072657620C5
:104AB000312E302020200A0053696C69636F6E200C
:104AC00072657620312E3120200A000053696C690E
:104AD000636F6E2072657620312E3220200A00002E
:104AE0003332206B4279746573206F662052414DDA
:104AF0000A0A00003634206B4279746573206F66B1
:104B00002052414D0A0A00003936206B4279746503
:104B100073206F662052414D0A0A0000313238205E
:104B20006B4279746573206F662052414D0A0A000A
:104B3000536F6674776172652052657365740A00FD
:104B4000506F7765722D6F6E2052657365740A0021
:104B5000333270696E2020202020202000000000C9
:104B6000343870696E2020202020202000000000B2
:104B7000363470696E2020202020202000000000A4
:104B8000383070696E202020202020200000000096
:104B9000383170696E202020202020200000000085
:104BA00031303070696E202020202020000000006D
:104BB00031303470696E2020202020200000000059
:104BC00031343470696E2020202020200000000045
:104BD00031393670696E202020202020000000002E
:104BE00032353670696E2020202020200000000021
:104BF000502D666C617368206F6E6C790A0000003E
:104C000010B504002100C9B20120FEF718FE10BD46
:104C10004A5441472052657365740A004C4C5755FD
:104C20002052657365740A00666C617368C6F4B6D9
:104C3000AF0A00005352414DC6F4B6AF0A0000005F
:104C4000C046C046C046C046FFF702FF0A4B31309F
:104C50002D0000000A4B32302D0000000A4B33308B
:104C60002D0000000A4B34302D0000000A4B363076
:104C70002D0000000A4B37302D0000000A4B353064
:0C4C80002D0000000A4B35332D00000011
:0400000500004C416A
:00000001FF
